{
  "contractName": "Medicare",
  "abi": [
    {
      "inputs": [],
      "payable": false,
      "stateMutability": "nonpayable",
      "type": "constructor"
    },
    {
      "constant": true,
      "inputs": [],
      "name": "D_ID",
      "outputs": [
        {
          "internalType": "uint256",
          "name": "",
          "type": "uint256"
        }
      ],
      "payable": false,
      "stateMutability": "view",
      "type": "function"
    },
    {
      "constant": true,
      "inputs": [
        {
          "internalType": "uint256",
          "name": "",
          "type": "uint256"
        }
      ],
      "name": "Doctor",
      "outputs": [
        {
          "internalType": "uint256",
          "name": "hospitalID",
          "type": "uint256"
        },
        {
          "internalType": "string",
          "name": "name",
          "type": "string"
        },
        {
          "internalType": "string",
          "name": "location",
          "type": "string"
        },
        {
          "internalType": "string",
          "name": "contact",
          "type": "string"
        },
        {
          "internalType": "uint256",
          "name": "reputation",
          "type": "uint256"
        },
        {
          "internalType": "address",
          "name": "pubadd",
          "type": "address"
        }
      ],
      "payable": false,
      "stateMutability": "view",
      "type": "function"
    },
    {
      "constant": true,
      "inputs": [],
      "name": "HOII",
      "outputs": [
        {
          "internalType": "address",
          "name": "",
          "type": "address"
        }
      ],
      "payable": false,
      "stateMutability": "view",
      "type": "function"
    },
    {
      "constant": true,
      "inputs": [],
      "name": "H_ID",
      "outputs": [
        {
          "internalType": "uint256",
          "name": "",
          "type": "uint256"
        }
      ],
      "payable": false,
      "stateMutability": "view",
      "type": "function"
    },
    {
      "constant": true,
      "inputs": [
        {
          "internalType": "uint256",
          "name": "",
          "type": "uint256"
        }
      ],
      "name": "Hospital",
      "outputs": [
        {
          "internalType": "string",
          "name": "name",
          "type": "string"
        },
        {
          "internalType": "string",
          "name": "location",
          "type": "string"
        },
        {
          "internalType": "string",
          "name": "contact",
          "type": "string"
        },
        {
          "internalType": "uint256",
          "name": "reputation",
          "type": "uint256"
        },
        {
          "internalType": "address",
          "name": "pubadd",
          "type": "address"
        }
      ],
      "payable": false,
      "stateMutability": "view",
      "type": "function"
    },
    {
      "constant": true,
      "inputs": [],
      "name": "P_ID",
      "outputs": [
        {
          "internalType": "uint256",
          "name": "",
          "type": "uint256"
        }
      ],
      "payable": false,
      "stateMutability": "view",
      "type": "function"
    },
    {
      "constant": true,
      "inputs": [
        {
          "internalType": "uint256",
          "name": "",
          "type": "uint256"
        }
      ],
      "name": "Patient",
      "outputs": [
        {
          "internalType": "string",
          "name": "name",
          "type": "string"
        },
        {
          "internalType": "string",
          "name": "location",
          "type": "string"
        },
        {
          "internalType": "string",
          "name": "contact",
          "type": "string"
        },
        {
          "internalType": "uint256",
          "name": "age",
          "type": "uint256"
        },
        {
          "internalType": "uint256",
          "name": "sex",
          "type": "uint256"
        },
        {
          "internalType": "string",
          "name": "bloodGroup",
          "type": "string"
        },
        {
          "internalType": "uint256",
          "name": "reportList",
          "type": "uint256"
        },
        {
          "internalType": "address",
          "name": "pubadd",
          "type": "address"
        }
      ],
      "payable": false,
      "stateMutability": "view",
      "type": "function"
    },
    {
      "constant": false,
      "inputs": [
        {
          "internalType": "string",
          "name": "_name",
          "type": "string"
        },
        {
          "internalType": "string",
          "name": "_location",
          "type": "string"
        },
        {
          "internalType": "string",
          "name": "_contact",
          "type": "string"
        },
        {
          "internalType": "address",
          "name": "_pubadd",
          "type": "address"
        }
      ],
      "name": "setHospital",
      "outputs": [],
      "payable": false,
      "stateMutability": "nonpayable",
      "type": "function"
    },
    {
      "constant": false,
      "inputs": [
        {
          "internalType": "uint256",
          "name": "_HID",
          "type": "uint256"
        }
      ],
      "name": "RemoveHospital",
      "outputs": [],
      "payable": false,
      "stateMutability": "nonpayable",
      "type": "function"
    },
    {
      "constant": false,
      "inputs": [
        {
          "internalType": "uint256",
          "name": "_HID",
          "type": "uint256"
        },
        {
          "internalType": "string",
          "name": "_name",
          "type": "string"
        },
        {
          "internalType": "string",
          "name": "_location",
          "type": "string"
        },
        {
          "internalType": "string",
          "name": "_contact",
          "type": "string"
        },
        {
          "internalType": "address",
          "name": "_pubadd",
          "type": "address"
        }
      ],
      "name": "setDoctor",
      "outputs": [],
      "payable": false,
      "stateMutability": "nonpayable",
      "type": "function"
    },
    {
      "constant": false,
      "inputs": [
        {
          "internalType": "uint256",
          "name": "_HID",
          "type": "uint256"
        },
        {
          "internalType": "uint256",
          "name": "_DID",
          "type": "uint256"
        }
      ],
      "name": "RemoveDoctor",
      "outputs": [],
      "payable": false,
      "stateMutability": "nonpayable",
      "type": "function"
    },
    {
      "constant": false,
      "inputs": [
        {
          "internalType": "string",
          "name": "_name",
          "type": "string"
        },
        {
          "internalType": "string",
          "name": "_location",
          "type": "string"
        },
        {
          "internalType": "string",
          "name": "_contact",
          "type": "string"
        },
        {
          "internalType": "uint256",
          "name": "_age",
          "type": "uint256"
        },
        {
          "internalType": "uint256",
          "name": "sex",
          "type": "uint256"
        },
        {
          "internalType": "string",
          "name": "bloodGroup",
          "type": "string"
        }
      ],
      "name": "PatientRegister",
      "outputs": [],
      "payable": false,
      "stateMutability": "nonpayable",
      "type": "function"
    },
    {
      "constant": false,
      "inputs": [
        {
          "internalType": "uint256",
          "name": "_patientID",
          "type": "uint256"
        },
        {
          "internalType": "uint256",
          "name": "_doctorID",
          "type": "uint256"
        },
        {
          "internalType": "string",
          "name": "_prescription",
          "type": "string"
        },
        {
          "internalType": "uint256",
          "name": "_allowedTime",
          "type": "uint256"
        }
      ],
      "name": "GenarateMR",
      "outputs": [],
      "payable": false,
      "stateMutability": "nonpayable",
      "type": "function"
    },
    {
      "constant": false,
      "inputs": [
        {
          "internalType": "uint256",
          "name": "_PID",
          "type": "uint256"
        },
        {
          "internalType": "uint256",
          "name": "_reportID",
          "type": "uint256"
        },
        {
          "internalType": "uint256",
          "name": "_rating",
          "type": "uint256"
        }
      ],
      "name": "RateDoctor",
      "outputs": [],
      "payable": false,
      "stateMutability": "nonpayable",
      "type": "function"
    },
    {
      "constant": true,
      "inputs": [
        {
          "internalType": "uint256",
          "name": "pId",
          "type": "uint256"
        },
        {
          "internalType": "uint256",
          "name": "rId",
          "type": "uint256"
        }
      ],
      "name": "getPatientReports",
      "outputs": [
        {
          "internalType": "uint256",
          "name": "hospitalID",
          "type": "uint256"
        },
        {
          "internalType": "uint256",
          "name": "doctorID",
          "type": "uint256"
        },
        {
          "internalType": "uint256",
          "name": "time",
          "type": "uint256"
        },
        {
          "internalType": "string",
          "name": "prescription",
          "type": "string"
        },
        {
          "internalType": "uint256",
          "name": "allowedTime",
          "type": "uint256"
        },
        {
          "internalType": "bool",
          "name": "status",
          "type": "bool"
        }
      ],
      "payable": false,
      "stateMutability": "view",
      "type": "function"
    },
    {
      "constant": true,
      "inputs": [],
      "name": "checkHospital",
      "outputs": [
        {
          "internalType": "uint256",
          "name": "status",
          "type": "uint256"
        }
      ],
      "payable": false,
      "stateMutability": "view",
      "type": "function"
    },
    {
      "constant": true,
      "inputs": [],
      "name": "checkDoctor",
      "outputs": [
        {
          "internalType": "uint256",
          "name": "status",
          "type": "uint256"
        }
      ],
      "payable": false,
      "stateMutability": "view",
      "type": "function"
    },
    {
      "constant": true,
      "inputs": [],
      "name": "checkPatient",
      "outputs": [
        {
          "internalType": "uint256",
          "name": "status",
          "type": "uint256"
        }
      ],
      "payable": false,
      "stateMutability": "view",
      "type": "function"
    }
  ],
  "bytecode": "0x608060405261010060065561020060075561040060085534801561002257600080fd5b50336000806101000a81548173ffffffffffffffffffffffffffffffffffffffff021916908373ffffffffffffffffffffffffffffffffffffffff160217905550612c08806100726000396000f3fe608060405234801561001057600080fd5b50600436106101155760003560e01c80639a1970c1116100a2578063d7e19a2211610071578063d7e19a2214610db1578063e06c281214610ddf578063e247259114610dfd578063e73816e214611091578063f92bcb70146110af57610115565b80639a1970c114610adc578063a8256ccb14610c9c578063ac71d01614610d75578063cc72f70b14610d9357610115565b80633c819012116100e95780633c8190121461048d578063627b7bbf146104cf5780636e0d1ffc146106e257806372b36cc21461071a57806378a35e13146108d357610115565b8062a9f2cd1461011a57806320dfa6d1146101f257806327dfa7bf1461021057806328b7a10b1461025a575b600080fd5b6101506004803603604081101561013057600080fd5b8101908080359060200190929190803590602001909291905050506110cd565b604051808781526020018681526020018581526020018060200184815260200183151515158152602001828103825285818151815260200191508051906020019080838360005b838110156101b2578082015181840152602081019050610197565b50505050905090810190601f1680156101df5780820380516001836020036101000a031916815260200191505b5097505050505050505060405180910390f35b6101fa61123a565b6040518082815260200191505060405180910390f35b6102186112d5565b604051808273ffffffffffffffffffffffffffffffffffffffff1673ffffffffffffffffffffffffffffffffffffffff16815260200191505060405180910390f35b6102866004803603602081101561027057600080fd5b81019080803590602001909291905050506112fa565b60405180806020018060200180602001898152602001888152602001806020018781526020018673ffffffffffffffffffffffffffffffffffffffff1673ffffffffffffffffffffffffffffffffffffffff16815260200185810385528d818151815260200191508051906020019080838360005b838110156103165780820151818401526020810190506102fb565b50505050905090810190601f1680156103435780820380516001836020036101000a031916815260200191505b5085810384528c818151815260200191508051906020019080838360005b8381101561037c578082015181840152602081019050610361565b50505050905090810190601f1680156103a95780820380516001836020036101000a031916815260200191505b5085810383528b818151815260200191508051906020019080838360005b838110156103e25780820151818401526020810190506103c7565b50505050905090810190601f16801561040f5780820380516001836020036101000a031916815260200191505b50858103825288818151815260200191508051906020019080838360005b8381101561044857808201518184015260208101905061042d565b50505050905090810190601f1680156104755780820380516001836020036101000a031916815260200191505b509c5050505050505050505050505060405180910390f35b6104cd600480360360608110156104a357600080fd5b810190808035906020019092919080359060200190929190803590602001909291905050506115c2565b005b6106e0600480360360a08110156104e557600080fd5b81019080803590602001909291908035906020019064010000000081111561050c57600080fd5b82018360208201111561051e57600080fd5b8035906020019184600183028401116401000000008311171561054057600080fd5b91908080601f016020809104026020016040519081016040528093929190818152602001838380828437600081840152601f19601f820116905080830192505050505050509192919290803590602001906401000000008111156105a357600080fd5b8201836020820111156105b557600080fd5b803590602001918460018302840111640100000000831117156105d757600080fd5b91908080601f016020809104026020016040519081016040528093929190818152602001838380828437600081840152601f19601f8201169050808301925050505050505091929192908035906020019064010000000081111561063a57600080fd5b82018360208201111561064c57600080fd5b8035906020019184600183028401116401000000008311171561066e57600080fd5b91908080601f016020809104026020016040519081016040528093929190818152602001838380828437600081840152601f19601f820116905080830192505050505050509192919290803573ffffffffffffffffffffffffffffffffffffffff16906020019092919050505061179d565b005b610718600480360360408110156106f857600080fd5b8101908080359060200190929190803590602001909291905050506119d9565b005b6107466004803603602081101561073057600080fd5b8101908080359060200190929190505050611b33565b604051808060200180602001806020018681526020018573ffffffffffffffffffffffffffffffffffffffff1673ffffffffffffffffffffffffffffffffffffffff168152602001848103845289818151815260200191508051906020019080838360005b838110156107c65780820151818401526020810190506107ab565b50505050905090810190601f1680156107f35780820380516001836020036101000a031916815260200191505b50848103835288818151815260200191508051906020019080838360005b8381101561082c578082015181840152602081019050610811565b50505050905090810190601f1680156108595780820380516001836020036101000a031916815260200191505b50848103825287818151815260200191508051906020019080838360005b83811015610892578082015181840152602081019050610877565b50505050905090810190601f1680156108bf5780820380516001836020036101000a031916815260200191505b509850505050505050505060405180910390f35b610ada600480360360808110156108e957600080fd5b810190808035906020019064010000000081111561090657600080fd5b82018360208201111561091857600080fd5b8035906020019184600183028401116401000000008311171561093a57600080fd5b91908080601f016020809104026020016040519081016040528093929190818152602001838380828437600081840152601f19601f8201169050808301925050505050505091929192908035906020019064010000000081111561099d57600080fd5b8201836020820111156109af57600080fd5b803590602001918460018302840111640100000000831117156109d157600080fd5b91908080601f016020809104026020016040519081016040528093929190818152602001838380828437600081840152601f19601f82011690508083019250505050505050919291929080359060200190640100000000811115610a3457600080fd5b820183602082011115610a4657600080fd5b80359060200191846001830284011164010000000083111715610a6857600080fd5b91908080601f016020809104026020016040519081016040528093929190818152602001838380828437600081840152601f19601f820116905080830192505050505050509192919290803573ffffffffffffffffffffffffffffffffffffffff169060200190929190505050611d51565b005b610b0860048036036020811015610af257600080fd5b8101908080359060200190929190505050611f65565b604051808781526020018060200180602001806020018681526020018573ffffffffffffffffffffffffffffffffffffffff1673ffffffffffffffffffffffffffffffffffffffff168152602001848103845289818151815260200191508051906020019080838360005b83811015610b8e578082015181840152602081019050610b73565b50505050905090810190601f168015610bbb5780820380516001836020036101000a031916815260200191505b50848103835288818151815260200191508051906020019080838360005b83811015610bf4578082015181840152602081019050610bd9565b50505050905090810190601f168015610c215780820380516001836020036101000a031916815260200191505b50848103825287818151815260200191508051906020019080838360005b83811015610c5a578082015181840152602081019050610c3f565b50505050905090810190601f168015610c875780820380516001836020036101000a031916815260200191505b50995050505050505050505060405180910390f35b610d7360048036036080811015610cb257600080fd5b81019080803590602001909291908035906020019092919080359060200190640100000000811115610ce357600080fd5b820183602082011115610cf557600080fd5b80359060200191846001830284011164010000000083111715610d1757600080fd5b91908080601f016020809104026020016040519081016040528093929190818152602001838380828437600081840152601f19601f82011690508083019250505050505050919291929080359060200190929190505050612189565b005b610d7d6124e3565b6040518082815260200191505060405180910390f35b610d9b61257e565b6040518082815260200191505060405180910390f35b610ddd60048036036020811015610dc757600080fd5b8101908080359060200190929190505050612584565b005b610de76126e4565b6040518082815260200191505060405180910390f35b61108f600480360360c0811015610e1357600080fd5b8101908080359060200190640100000000811115610e3057600080fd5b820183602082011115610e4257600080fd5b80359060200191846001830284011164010000000083111715610e6457600080fd5b91908080601f016020809104026020016040519081016040528093929190818152602001838380828437600081840152601f19601f82011690508083019250505050505050919291929080359060200190640100000000811115610ec757600080fd5b820183602082011115610ed957600080fd5b80359060200191846001830284011164010000000083111715610efb57600080fd5b91908080601f016020809104026020016040519081016040528093929190818152602001838380828437600081840152601f19601f82011690508083019250505050505050919291929080359060200190640100000000811115610f5e57600080fd5b820183602082011115610f7057600080fd5b80359060200191846001830284011164010000000083111715610f9257600080fd5b91908080601f016020809104026020016040519081016040528093929190818152602001838380828437600081840152601f19601f82011690508083019250505050505050919291929080359060200190929190803590602001909291908035906020019064010000000081111561100957600080fd5b82018360208201111561101b57600080fd5b8035906020019184600183028401116401000000008311171561103d57600080fd5b91908080601f016020809104026020016040519081016040528093929190818152602001838380828437600081840152601f19601f8201169050808301925050505050505091929192905050506126ea565b005b611099612846565b6040518082815260200191505060405180910390f35b6110b7612962565b6040518082815260200191505060405180910390f35b600080600060606000806110df612a78565b600560008a815260200190815260200160002060080160008981526020019081526020016000206040518060e0016040529081600082015481526020016001820154815260200160028201548152602001600382018054600181600116156101000203166002900480601f0160208091040260200160405190810160405280929190818152602001828054600181600116156101000203166002900480156111c85780601f1061119d576101008083540402835291602001916111c8565b820191906000526020600020905b8154815290600101906020018083116111ab57829003601f168201915b5050505050815260200160048201548152602001600582015481526020016006820160009054906101000a900460ff1615151515815250509050806000015181602001518260400151836060015184608001518560c00151829250965096509650965096509650509295509295509295565b60008061040090505b60085481116112cc576005600082815260200190815260200160002060070160009054906101000a900473ffffffffffffffffffffffffffffffffffffffff1673ffffffffffffffffffffffffffffffffffffffff163373ffffffffffffffffffffffffffffffffffffffff1614156112bf57809150506112d2565b8080600101915050611243565b50600090505b90565b6000809054906101000a900473ffffffffffffffffffffffffffffffffffffffff1681565b6005602052806000526040600020600091509050806000018054600181600116156101000203166002900480601f0160208091040260200160405190810160405280929190818152602001828054600181600116156101000203166002900480156113a65780601f1061137b576101008083540402835291602001916113a6565b820191906000526020600020905b81548152906001019060200180831161138957829003601f168201915b505050505090806001018054600181600116156101000203166002900480601f0160208091040260200160405190810160405280929190818152602001828054600181600116156101000203166002900480156114445780601f1061141957610100808354040283529160200191611444565b820191906000526020600020905b81548152906001019060200180831161142757829003601f168201915b505050505090806002018054600181600116156101000203166002900480601f0160208091040260200160405190810160405280929190818152602001828054600181600116156101000203166002900480156114e25780601f106114b7576101008083540402835291602001916114e2565b820191906000526020600020905b8154815290600101906020018083116114c557829003601f168201915b505050505090806003015490806004015490806005018054600181600116156101000203166002900480601f01602080910402602001604051908101604052809291908181526020018280546001816001161561010002031660029004801561158c5780601f106115615761010080835404028352916020019161158c565b820191906000526020600020905b81548152906001019060200180831161156f57829003601f168201915b5050505050908060060154908060070160009054906101000a900473ffffffffffffffffffffffffffffffffffffffff16905088565b60006005600085815260200190815260200160002060080160008481526020019081526020016000206001015490506000600460008381526020019081526020016000206000015490508260026000848152602001908152602001600020600101540160026000848152602001908152602001600020600101819055508260016000838152602001908152602001600020600101540160016000838152602001908152602001600020600101819055506116b16002600084815260200190815260200160002060000154600260008581526020019081526020016000206001015461296890919063ffffffff16565b600460008481526020019081526020016000206004018190555061170a6001600083815260200190815260200160002060000154600160008481526020019081526020016000206001015461296890919063ffffffff16565b6003600083815260200190815260200160002060030181905550600160056000878152602001908152602001600020600801600086815260200190815260200160002060060160006101000a81548160ff02191690831515021790555082600560008781526020019081526020016000206008016000868152602001908152602001600020600501819055505050505050565b843373ffffffffffffffffffffffffffffffffffffffff166003600083815260200190815260200160002060040160009054906101000a900473ffffffffffffffffffffffffffffffffffffffff1673ffffffffffffffffffffffffffffffffffffffff1614611875576040517f08c379a000000000000000000000000000000000000000000000000000000000815260040180806020018281038252600d8152602001807f6f6e6c7920486f73706974616c0000000000000000000000000000000000000081525060200191505060405180910390fd5b6040518060c00160405280878152602001868152602001848152602001858152602001600081526020018373ffffffffffffffffffffffffffffffffffffffff168152506004600060075481526020019081526020016000206000820151816000015560208201518160010190805190602001906118f4929190612ab7565b506040820151816002019080519060200190611911929190612ab7565b50606082015181600301908051906020019061192e929190612ab7565b506080820151816004015560a08201518160050160006101000a81548173ffffffffffffffffffffffffffffffffffffffff021916908373ffffffffffffffffffffffffffffffffffffffff160217905550905050600060026000600754815260200190815260200160002060000181905550600060026000600754815260200190815260200160002060010181905550600760008154809291906001019190505550505050505050565b813373ffffffffffffffffffffffffffffffffffffffff166003600083815260200190815260200160002060040160009054906101000a900473ffffffffffffffffffffffffffffffffffffffff1673ffffffffffffffffffffffffffffffffffffffff1614611ab1576040517f08c379a000000000000000000000000000000000000000000000000000000000815260040180806020018281038252600d8152602001807f6f6e6c7920486f73706974616c0000000000000000000000000000000000000081525060200191505060405180910390fd5b60046000838152602001908152602001600020600080820160009055600182016000611add9190612b37565b600282016000611aed9190612b37565b600382016000611afd9190612b37565b60048201600090556005820160006101000a81549073ffffffffffffffffffffffffffffffffffffffff02191690555050505050565b6003602052806000526040600020600091509050806000018054600181600116156101000203166002900480601f016020809104026020016040519081016040528092919081815260200182805460018160011615610100020316600290048015611bdf5780601f10611bb457610100808354040283529160200191611bdf565b820191906000526020600020905b815481529060010190602001808311611bc257829003601f168201915b505050505090806001018054600181600116156101000203166002900480601f016020809104026020016040519081016040528092919081815260200182805460018160011615610100020316600290048015611c7d5780601f10611c5257610100808354040283529160200191611c7d565b820191906000526020600020905b815481529060010190602001808311611c6057829003601f168201915b505050505090806002018054600181600116156101000203166002900480601f016020809104026020016040519081016040528092919081815260200182805460018160011615610100020316600290048015611d1b5780601f10611cf057610100808354040283529160200191611d1b565b820191906000526020600020905b815481529060010190602001808311611cfe57829003601f168201915b5050505050908060030154908060040160009054906101000a900473ffffffffffffffffffffffffffffffffffffffff16905085565b3373ffffffffffffffffffffffffffffffffffffffff166000809054906101000a900473ffffffffffffffffffffffffffffffffffffffff1673ffffffffffffffffffffffffffffffffffffffff1614611e13576040517f08c379a00000000000000000000000000000000000000000000000000000000081526004018080602001828103825260098152602001807f6f6e6c7920484f4949000000000000000000000000000000000000000000000081525060200191505060405180910390fd5b6040518060a00160405280858152602001838152602001848152602001600081526020018273ffffffffffffffffffffffffffffffffffffffff168152506003600060065481526020019081526020016000206000820151816000019080519060200190611e82929190612ab7565b506020820151816001019080519060200190611e9f929190612ab7565b506040820151816002019080519060200190611ebc929190612ab7565b506060820151816003015560808201518160040160006101000a81548173ffffffffffffffffffffffffffffffffffffffff021916908373ffffffffffffffffffffffffffffffffffffffff16021790555090505060006001600060065481526020019081526020016000206000018190555060006001600060065481526020019081526020016000206001018190555060066000815480929190600101919050555050505050565b6004602052806000526040600020600091509050806000015490806001018054600181600116156101000203166002900480601f0160208091040260200160405190810160405280929190818152602001828054600181600116156101000203166002900480156120175780601f10611fec57610100808354040283529160200191612017565b820191906000526020600020905b815481529060010190602001808311611ffa57829003601f168201915b505050505090806002018054600181600116156101000203166002900480601f0160208091040260200160405190810160405280929190818152602001828054600181600116156101000203166002900480156120b55780601f1061208a576101008083540402835291602001916120b5565b820191906000526020600020905b81548152906001019060200180831161209857829003601f168201915b505050505090806003018054600181600116156101000203166002900480601f0160208091040260200160405190810160405280929190818152602001828054600181600116156101000203166002900480156121535780601f1061212857610100808354040283529160200191612153565b820191906000526020600020905b81548152906001019060200180831161213657829003601f168201915b5050505050908060040154908060050160009054906101000a900473ffffffffffffffffffffffffffffffffffffffff16905086565b823373ffffffffffffffffffffffffffffffffffffffff166004600083815260200190815260200160002060050160009054906101000a900473ffffffffffffffffffffffffffffffffffffffff1673ffffffffffffffffffffffffffffffffffffffff1614612261576040517f08c379a000000000000000000000000000000000000000000000000000000000815260040180806020018281038252600b8152602001807f6f6e6c7920446f63746f7200000000000000000000000000000000000000000081525060200191505060405180910390fd5b8484806005600084815260200190815260200160002060080160006005600086815260200190815260200160002060060154815260200190815260200160002060010154141561235657600115156005600084815260200190815260200160002060080160006005600086815260200190815260200160002060060154815260200190815260200160002060060160009054906101000a900460ff16151514612355576040517f08c379a000000000000000000000000000000000000000000000000000000000815260040180806020018281038252602f815260200180612ba5602f913960400191505060405180910390fd5b5b60056000888152602001908152602001600020600601600081548092919060010191905055506040518060e00160405280600460008981526020019081526020016000206000015481526020018781526020014281526020018681526020018581526020016000815260200160001515815250600560008981526020019081526020016000206008016000600560008b81526020019081526020016000206006015481526020019081526020016000206000820151816000015560208201518160010155604082015181600201556060820151816003019080519060200190612440929190612ab7565b506080820151816004015560a0820151816005015560c08201518160060160006101000a81548160ff021916908315150217905550905050600260008781526020019081526020016000206000016000815480929190600101919050555060016000600460008981526020019081526020016000206000015481526020019081526020016000206000016000815480929190600101919050555050505050505050565b60008061010090505b6006548111612575576003600082815260200190815260200160002060040160009054906101000a900473ffffffffffffffffffffffffffffffffffffffff1673ffffffffffffffffffffffffffffffffffffffff163373ffffffffffffffffffffffffffffffffffffffff161415612568578091505061257b565b80806001019150506124ec565b50600090505b90565b60075481565b3373ffffffffffffffffffffffffffffffffffffffff166000809054906101000a900473ffffffffffffffffffffffffffffffffffffffff1673ffffffffffffffffffffffffffffffffffffffff1614612646576040517f08c379a00000000000000000000000000000000000000000000000000000000081526004018080602001828103825260098152602001807f6f6e6c7920484f4949000000000000000000000000000000000000000000000081525060200191505060405180910390fd5b600360008281526020019081526020016000206000808201600061266a9190612b37565b60018201600061267a9190612b37565b60028201600061268a9190612b37565b60038201600090556004820160006101000a81549073ffffffffffffffffffffffffffffffffffffffff02191690555050600160008281526020019081526020016000206000808201600090556001820160009055505050565b60085481565b604051806101000160405280878152602001868152602001858152602001848152602001838152602001828152602001600081526020013373ffffffffffffffffffffffffffffffffffffffff16815250600560006008548152602001908152602001600020600082015181600001908051906020019061276c929190612ab7565b506020820151816001019080519060200190612789929190612ab7565b5060408201518160020190805190602001906127a6929190612ab7565b50606082015181600301556080820151816004015560a08201518160050190805190602001906127d7929190612ab7565b5060c0820151816006015560e08201518160070160006101000a81548173ffffffffffffffffffffffffffffffffffffffff021916908373ffffffffffffffffffffffffffffffffffffffff160217905550905050600860008154809291906001019190505550505050505050565b60008061020090505b6007548111612959576004600082815260200190815260200160002060050160009054906101000a900473ffffffffffffffffffffffffffffffffffffffff1673ffffffffffffffffffffffffffffffffffffffff163373ffffffffffffffffffffffffffffffffffffffff16141561294c57600073ffffffffffffffffffffffffffffffffffffffff16600360006004600085815260200190815260200160002060000154815260200190815260200160002060040160009054906101000a900473ffffffffffffffffffffffffffffffffffffffff1673ffffffffffffffffffffffffffffffffffffffff161461294b578091505061295f565b5b808060010191505061284f565b50600090505b90565b60065481565b60006129aa83836040518060400160405280601a81526020017f536166654d6174683a206469766973696f6e206279207a65726f0000000000008152506129b2565b905092915050565b60008083118290612a5e576040517f08c379a00000000000000000000000000000000000000000000000000000000081526004018080602001828103825283818151815260200191508051906020019080838360005b83811015612a23578082015181840152602081019050612a08565b50505050905090810190601f168015612a505780820380516001836020036101000a031916815260200191505b509250505060405180910390fd5b506000838581612a6a57fe5b049050809150509392505050565b6040518060e001604052806000815260200160008152602001600081526020016060815260200160008152602001600081526020016000151581525090565b828054600181600116156101000203166002900490600052602060002090601f016020900481019282601f10612af857805160ff1916838001178555612b26565b82800160010185558215612b26579182015b82811115612b25578251825591602001919060010190612b0a565b5b509050612b339190612b7f565b5090565b50805460018160011615610100020316600290046000825580601f10612b5d5750612b7c565b601f016020900490600052602060002090810190612b7b9190612b7f565b5b50565b612ba191905b80821115612b9d576000816000905550600101612b85565b5090565b9056fe4c617374205265706f7274204e6f742056616c696420796574202c20636f6e73656c7420616e6f7468657220646f63a265627a7a72315820ccfc9f9edd79bd779374f12096c4b966e5aeb86824887092dde63d5ddb46232f64736f6c634300050f0032",
  "source": "pragma solidity ^0.5.15;\r\nimport './SafeMath.sol';\r\ncontract Medicare {\r\n  using SafeMath for uint256;\r\n  address public HOII;\r\n  constructor() public {\r\n    HOII = msg.sender;\r\n  }\r\n  struct HospitalDetails{\r\n    string name;\r\n    string location;\r\n    string contact;\r\n    uint reputation;\r\n    address pubadd;\r\n  }\r\n  struct DoctorDetails{\r\n    uint hospitalID;\r\n    string name;\r\n    string location;\r\n    string contact;\r\n    uint reputation;\r\n    address pubadd;\r\n  }\r\n  struct MedicalReportDetails{\r\n    uint hospitalID;\r\n    uint doctorID;\r\n    uint time;\r\n    string prescription;\r\n    uint allowedTime;\r\n    uint rate;\r\n    bool status;\r\n  }\r\n  struct PatientDetails{\r\n    string name;\r\n    string location;\r\n    string contact;\r\n    uint age;\r\n    uint sex;\r\n    string bloodGroup;\r\n    uint reportList;\r\n    address pubadd;\r\n    mapping (uint => MedicalReportDetails) Reports;\r\n  }\r\n  struct Rate{\r\n    uint totalPatients;\r\n    uint totalRates;\r\n  }\r\n  mapping (uint => Rate) HospitalReputation;\r\n  mapping (uint => Rate) DoctorReputation;\r\n  mapping(uint => HospitalDetails)public Hospital;\r\n  mapping(uint => DoctorDetails) public Doctor;\r\n  mapping(uint => PatientDetails) public Patient;\r\n  // mapping(address => mapping (uint => MedicalReportDetails)) Reports;\r\n  uint public H_ID = 256;\r\n  uint public D_ID = 512;\r\n  uint public P_ID = 1024;\r\n  modifier onlyHOII(){\r\n    require(HOII == msg.sender,\"only HOII\");\r\n    _;\r\n  }\r\n  modifier onlyHospital(uint id){\r\n    require(Hospital[id].pubadd == msg.sender,\"only Hospital\");\r\n    _;\r\n  }\r\n  modifier onlyDoctor(uint id){\r\n    require(Doctor[id].pubadd == msg.sender,\"only Doctor\");\r\n    _;\r\n  }\r\n  modifier isStatusFalseNoSameDoctor(uint pId,uint dId){\r\n    if(Patient[pId].Reports[Patient[pId].reportList].doctorID == dId){\r\n      require(Patient[pId].Reports[Patient[pId].reportList].status == true,'Last Report Not Valid yet , conselt another doc');\r\n    }\r\n    _;\r\n  }\r\n  // modifier checkAllowedTime(uint pID,uint rID){\r\n  //     require((Patient[pID].Reports[rID].allowedTime - now) < 0,'Cant Rate now , wait until allowed time over ');\r\n  //   _;\r\n  // }\r\n  modifier onlyPatient(uint id){\r\n    require(Patient[id].pubadd == msg.sender,\"only Patient\");\r\n    _;\r\n  }\r\n  function setHospital(\r\n    string memory _name,\r\n    string memory _location,\r\n    string memory _contact,\r\n    address _pubadd) public onlyHOII{\r\n    Hospital[H_ID] = HospitalDetails(\r\n      _name,\r\n      _contact,\r\n      _location,\r\n      0,\r\n      _pubadd);\r\n      HospitalReputation[H_ID].totalPatients = 0;\r\n      HospitalReputation[H_ID].totalRates = 0;\r\n    H_ID++;\r\n  }\r\n  function RemoveHospital(uint _HID) public onlyHOII{\r\n    delete Hospital[_HID];\r\n    delete HospitalReputation[_HID];\r\n\r\n  }\r\n  function setDoctor(\r\n    uint _HID,\r\n    string memory _name,\r\n    string memory _location,\r\n    string memory _contact,\r\n    address _pubadd) public onlyHospital(_HID){\r\n    Doctor[D_ID] = DoctorDetails(\r\n      _HID,\r\n      _name,\r\n      _contact,\r\n      _location,\r\n      0,\r\n      _pubadd);\r\n    DoctorReputation[D_ID].totalPatients = 0;\r\n    DoctorReputation[D_ID].totalRates = 0;\r\n    D_ID++;\r\n  }\r\n  function RemoveDoctor(uint _HID,uint _DID) public onlyHospital(_HID){\r\n    delete Doctor[_DID];\r\n  }\r\n  function PatientRegister(\r\n    string memory _name,\r\n    string memory _location,\r\n    string memory _contact,\r\n    uint _age,\r\n    uint sex,\r\n    string memory bloodGroup) public {\r\n    Patient[P_ID] = PatientDetails(\r\n      _name,\r\n      _location,\r\n      _contact,\r\n      _age,\r\n      sex,\r\n      bloodGroup,\r\n      0,\r\n      msg.sender);\r\n    P_ID++;\r\n  }\r\n  function GenarateMR(\r\n    uint _patientID,\r\n    uint _doctorID,\r\n    string memory _prescription,\r\n    uint _allowedTime) public onlyDoctor(_doctorID) isStatusFalseNoSameDoctor(_patientID,_doctorID) {\r\n    Patient[_patientID].reportList++;\r\n    Patient[_patientID].Reports[Patient[_patientID].reportList] = MedicalReportDetails(\r\n      Doctor[_doctorID].hospitalID,_doctorID,now,_prescription,_allowedTime,0,false);\r\n    DoctorReputation[_doctorID].totalPatients++;\r\n    HospitalReputation[Doctor[_doctorID].hospitalID].totalPatients++;\r\n  }\r\n\r\n  function RateDoctor(uint _PID,uint _reportID,uint _rating) public  {\r\n    uint docID = Patient[_PID].Reports[_reportID].doctorID;\r\n    uint hosID = Doctor[docID].hospitalID;\r\n    DoctorReputation[docID].totalRates = DoctorReputation[docID].totalRates + _rating;\r\n    HospitalReputation[hosID].totalRates = HospitalReputation[hosID].totalRates + _rating;\r\n    Doctor[docID].reputation = DoctorReputation[docID].totalRates.div(DoctorReputation[docID].totalPatients);\r\n    Hospital[hosID].reputation = HospitalReputation[hosID].totalRates.div(HospitalReputation[hosID].totalPatients);\r\n    Patient[_PID].Reports[_reportID].status = true;\r\n    Patient[_PID].Reports[_reportID].rate = _rating;\r\n  }\r\n  function getPatientReports(uint pId,uint rId) public view returns(\r\n    uint hospitalID,\r\n    uint doctorID,\r\n    uint time,\r\n    string memory prescription,\r\n    uint allowedTime,\r\n    bool status) {\r\n      MedicalReportDetails memory report = Patient[pId].Reports[rId];\r\n      return(\r\n        report.hospitalID,report.doctorID,report.time,report.prescription,report.allowedTime,report.status\r\n      );\r\n  }\r\n\r\n  function checkHospital() public view returns (uint status) {\r\n    for (uint index = 256; index <= H_ID; index++) {\r\n      if (msg.sender == Hospital[index].pubadd) {\r\n        return index;\r\n      }\r\n    }\r\n    return 0;\r\n  }\r\n  function checkDoctor() public view returns (uint status) {\r\n    for (uint index = 512; index <= D_ID; index++) {\r\n      if (msg.sender == Doctor[index].pubadd) {\r\n        if(Hospital[Doctor[index].hospitalID].pubadd != 0x0000000000000000000000000000000000000000){\r\n      return index;\r\n        }\r\n      }\r\n    }\r\n    return 0;\r\n  }\r\n  function checkPatient() public view returns (uint status) {\r\n    for (uint index = 1024; index <= P_ID; index++) {\r\n      if (msg.sender == Patient[index].pubadd) {\r\n        return index;\r\n      }\r\n    }\r\n    return 0;\r\n  }\r\n}\r\n",
  "sourcePath": "/home/denny/Code/Samples/Medicare/new/medical-report-ethereum/contracts/Medicare.sol",
  "compiler": {
    "name": "solc",
    "version": "0.5.15+commit.6a57276f.Emscripten.clang"
  },
  "schemaVersion": "3.0.20",
  "updatedAt": "2020-01-03T07:43:23.191Z",
  "networkType": "ethereum",
  "devdoc": {
    "methods": {}
  },
  "userdoc": {
    "methods": {}
  }
}